:100000000C9434000C9446000C9446000C9446006A
:100010000C9446000C9446000C9446000C94460048
:100020000C9446000C9446000C9446000C94460038
:100030000C9446000C9446000C9446000C94460028
:100040000C9452000C9446000C9446000C9446000C
:100050000C9446000C9446000C9446000C94460008
:100060000C9446000C94460011241FBECFEFD8E03C
:10007000DEBFCDBF21E0A0E0B1E001C01D92A13004
:10008000B207E1F70E9463000C947C000C9400001E
:1000900082E085BD16BC81E080936E00789410925A
:1000A000000108951F920F920FB60F9211248F93A3
:1000B000809100018F5F809300018F910F900FBEA0
:1000C0000F901F9018958FE087B90E94480020E09C
:1000D00030E0809100018C30E0F386B5853328F064
:1000E0002F5F3F4F16BC10920001283E83E0380777
:0C00F00081F781E088B9EBCFF894FFCFD6
:00000001FF
