S01F00004156525F54696D65725F53696D706C6550726F6772616D2E737265631B
S11300000C9434000C943E000C943E000C943E007E
S11300100C943E000C943E000C943E000C943E0064
S11300200C943E000C943E000C943E000C943E0054
S11300300C943E000C943E000C943E000C943E0044
S11300400C943E000C943E000C943E000C943E0034
S11300500C943E000C943E000C943E000C943E0024
S11300600C943E000C943E0011241FBECFEFD8E048
S1130070DEBFCDBF0E9445000C9450000C940000DC
S113008085B5856085BD16BC089581E087B90E9459
S1130090400086B58C37E8F381E088B916BCF9CF07
S10700A0F894FFCFFE
S9030000FC
