:100000000C9434000C943E000C943E000C943E0082
:100010000C943E000C943E000C943E000C943E0068
:100020000C943E000C943E000C943E000C945C003A
:100030000C943E000C943E000C943E000C943E0048
:100040000C943E000C943E000C943E000C943E0038
:100050000C943E000C943E000C943E000C943E0028
:100060000C943E000C943E0011241FBECFEFD8E04C
:10007000DEBFCDBF0E9456000C946E000C940000B1
:10008000E1E8F0E080818B6080831092850010921F
:10009000840087EA91E69093890080938800EFE6D8
:1000A000F0E08081826080837894089587B18160D8
:1000B00087B90E944000FFCF1F920F920FB60F9298
:1000C00011248F939F9398B181E0892788B99F91DC
:1000D0008F910F900FBE0F901F901895F894FFCF3F
:00000001FF
