S021000054696D6572735F6F766572666C6F775F696E746572727570742E7372656370
S11300000C9434000C9446000C9446000C94460066
S11300100C9446000C9446000C9446000C94460044
S11300200C9446000C9446000C9446000C94460034
S11300300C9446000C9446000C9446000C94460024
S11300400C9466000C9446000C9446000C944600F4
S11300500C9446000C9446000C9446000C94460004
S11300600C9446000C94460011241FBECFEFD8E038
S1130070DEBFCDBF21E0A0E0B1E001C01D92A13000
S1130080B207E1F70E9455000C9477000C9400002D
S113009085B5846085BD16BCEEE6F0E080818160A4
S11300A08083789410920001089581E087B90E94BA
S11300B04800809100018C30E0F386B58533C8F3A5
S11300C081E088B916BC10920001F3CF1F920F9201
S11300D00FB60F9211248F93809100018F5F80934C
S11300E000018F910F900FBE0F901F901895F894F8
S10500F0FFCF3C
S9030000FC
